{
  "contractName": "StakerERC20_NoOwner",
  "abi": [
    {
      "inputs": [
        {
          "internalType": "uint256",
          "name": "initialSupply",
          "type": "uint256"
        }
      ],
      "stateMutability": "nonpayable",
      "type": "constructor"
    },
    {
      "anonymous": false,
      "inputs": [
        {
          "indexed": true,
          "internalType": "address",
          "name": "owner",
          "type": "address"
        },
        {
          "indexed": true,
          "internalType": "address",
          "name": "spender",
          "type": "address"
        },
        {
          "indexed": false,
          "internalType": "uint256",
          "name": "value",
          "type": "uint256"
        }
      ],
      "name": "Approval",
      "type": "event"
    },
    {
      "anonymous": false,
      "inputs": [
        {
          "indexed": true,
          "internalType": "address",
          "name": "previousOwner",
          "type": "address"
        },
        {
          "indexed": true,
          "internalType": "address",
          "name": "newOwner",
          "type": "address"
        }
      ],
      "name": "OwnershipTransferred",
      "type": "event"
    },
    {
      "anonymous": false,
      "inputs": [
        {
          "indexed": true,
          "internalType": "address",
          "name": "from",
          "type": "address"
        },
        {
          "indexed": true,
          "internalType": "address",
          "name": "to",
          "type": "address"
        },
        {
          "indexed": false,
          "internalType": "uint256",
          "name": "value",
          "type": "uint256"
        }
      ],
      "name": "Transfer",
      "type": "event"
    },
    {
      "inputs": [
        {
          "internalType": "address",
          "name": "owner",
          "type": "address"
        },
        {
          "internalType": "address",
          "name": "spender",
          "type": "address"
        }
      ],
      "name": "allowance",
      "outputs": [
        {
          "internalType": "uint256",
          "name": "",
          "type": "uint256"
        }
      ],
      "stateMutability": "view",
      "type": "function",
      "constant": true
    },
    {
      "inputs": [
        {
          "internalType": "address",
          "name": "spender",
          "type": "address"
        },
        {
          "internalType": "uint256",
          "name": "amount",
          "type": "uint256"
        }
      ],
      "name": "approve",
      "outputs": [
        {
          "internalType": "bool",
          "name": "",
          "type": "bool"
        }
      ],
      "stateMutability": "nonpayable",
      "type": "function"
    },
    {
      "inputs": [
        {
          "internalType": "address",
          "name": "account",
          "type": "address"
        }
      ],
      "name": "balanceOf",
      "outputs": [
        {
          "internalType": "uint256",
          "name": "",
          "type": "uint256"
        }
      ],
      "stateMutability": "view",
      "type": "function",
      "constant": true
    },
    {
      "inputs": [],
      "name": "decimals",
      "outputs": [
        {
          "internalType": "uint8",
          "name": "",
          "type": "uint8"
        }
      ],
      "stateMutability": "view",
      "type": "function",
      "constant": true
    },
    {
      "inputs": [
        {
          "internalType": "address",
          "name": "spender",
          "type": "address"
        },
        {
          "internalType": "uint256",
          "name": "subtractedValue",
          "type": "uint256"
        }
      ],
      "name": "decreaseAllowance",
      "outputs": [
        {
          "internalType": "bool",
          "name": "",
          "type": "bool"
        }
      ],
      "stateMutability": "nonpayable",
      "type": "function"
    },
    {
      "inputs": [
        {
          "internalType": "address",
          "name": "spender",
          "type": "address"
        },
        {
          "internalType": "uint256",
          "name": "addedValue",
          "type": "uint256"
        }
      ],
      "name": "increaseAllowance",
      "outputs": [
        {
          "internalType": "bool",
          "name": "",
          "type": "bool"
        }
      ],
      "stateMutability": "nonpayable",
      "type": "function"
    },
    {
      "inputs": [],
      "name": "name",
      "outputs": [
        {
          "internalType": "string",
          "name": "",
          "type": "string"
        }
      ],
      "stateMutability": "view",
      "type": "function",
      "constant": true
    },
    {
      "inputs": [],
      "name": "owner",
      "outputs": [
        {
          "internalType": "address",
          "name": "",
          "type": "address"
        }
      ],
      "stateMutability": "view",
      "type": "function",
      "constant": true
    },
    {
      "inputs": [],
      "name": "paused",
      "outputs": [
        {
          "internalType": "bool",
          "name": "",
          "type": "bool"
        }
      ],
      "stateMutability": "view",
      "type": "function",
      "constant": true
    },
    {
      "inputs": [],
      "name": "renounceOwnership",
      "outputs": [],
      "stateMutability": "nonpayable",
      "type": "function"
    },
    {
      "inputs": [],
      "name": "symbol",
      "outputs": [
        {
          "internalType": "string",
          "name": "",
          "type": "string"
        }
      ],
      "stateMutability": "view",
      "type": "function",
      "constant": true
    },
    {
      "inputs": [],
      "name": "totalSupply",
      "outputs": [
        {
          "internalType": "uint256",
          "name": "",
          "type": "uint256"
        }
      ],
      "stateMutability": "view",
      "type": "function",
      "constant": true
    },
    {
      "inputs": [
        {
          "internalType": "address",
          "name": "recipient",
          "type": "address"
        },
        {
          "internalType": "uint256",
          "name": "amount",
          "type": "uint256"
        }
      ],
      "name": "transfer",
      "outputs": [
        {
          "internalType": "bool",
          "name": "",
          "type": "bool"
        }
      ],
      "stateMutability": "nonpayable",
      "type": "function"
    },
    {
      "inputs": [
        {
          "internalType": "address",
          "name": "sender",
          "type": "address"
        },
        {
          "internalType": "address",
          "name": "recipient",
          "type": "address"
        },
        {
          "internalType": "uint256",
          "name": "amount",
          "type": "uint256"
        }
      ],
      "name": "transferFrom",
      "outputs": [
        {
          "internalType": "bool",
          "name": "",
          "type": "bool"
        }
      ],
      "stateMutability": "nonpayable",
      "type": "function"
    },
    {
      "inputs": [
        {
          "internalType": "address",
          "name": "newOwner",
          "type": "address"
        }
      ],
      "name": "transferOwnership",
      "outputs": [],
      "stateMutability": "nonpayable",
      "type": "function"
    },
    {
      "inputs": [
        {
          "internalType": "bool",
          "name": "_paused",
          "type": "bool"
        }
      ],
      "name": "setPaused",
      "outputs": [],
      "stateMutability": "nonpayable",
      "type": "function"
    },
    {
      "inputs": [
        {
          "internalType": "address",
          "name": "_address",
          "type": "address"
        }
      ],
      "name": "isStakingAddress",
      "outputs": [
        {
          "internalType": "bool",
          "name": "",
          "type": "bool"
        },
        {
          "internalType": "uint256",
          "name": "",
          "type": "uint256"
        }
      ],
      "stateMutability": "view",
      "type": "function",
      "constant": true
    },
    {
      "inputs": [
        {
          "internalType": "address",
          "name": "_stakingAddress",
          "type": "address"
        }
      ],
      "name": "stakeOf",
      "outputs": [
        {
          "internalType": "uint256",
          "name": "",
          "type": "uint256"
        }
      ],
      "stateMutability": "view",
      "type": "function",
      "constant": true
    },
    {
      "inputs": [],
      "name": "totalStakes",
      "outputs": [
        {
          "internalType": "uint256",
          "name": "",
          "type": "uint256"
        }
      ],
      "stateMutability": "view",
      "type": "function",
      "constant": true
    },
    {
      "inputs": [
        {
          "internalType": "uint256",
          "name": "_stake",
          "type": "uint256"
        }
      ],
      "name": "createStake",
      "outputs": [],
      "stateMutability": "nonpayable",
      "type": "function"
    },
    {
      "inputs": [
        {
          "internalType": "uint256",
          "name": "_stake",
          "type": "uint256"
        }
      ],
      "name": "removeStake",
      "outputs": [],
      "stateMutability": "nonpayable",
      "type": "function"
    },
    {
      "inputs": [
        {
          "internalType": "address",
          "name": "account",
          "type": "address"
        },
        {
          "internalType": "uint256",
          "name": "amount",
          "type": "uint256"
        }
      ],
      "name": "mint",
      "outputs": [],
      "stateMutability": "nonpayable",
      "type": "function"
    },
    {
      "inputs": [
        {
          "internalType": "address",
          "name": "account",
          "type": "address"
        },
        {
          "internalType": "uint256",
          "name": "amount",
          "type": "uint256"
        }
      ],
      "name": "burn",
      "outputs": [],
      "stateMutability": "nonpayable",
      "type": "function"
    }
  ],
  "bytecode": "0x60806040523480156200001157600080fd5b506040516200307838038062003078833981810160405281019062000037919062000428565b6040518060400160405280601381526020017f5374616b657245524332305f4e6f4f776e6572000000000000000000000000008152506040518060400160405280600481526020017f53454e4f000000000000000000000000000000000000000000000000000000008152508160039080519060200190620000bb92919062000361565b508060049080519060200190620000d492919062000361565b505050620000f7620000eb6200011060201b60201c565b6200011860201b60201c565b620001093382620001de60201b60201c565b5062000625565b600033905090565b6000600560009054906101000a900473ffffffffffffffffffffffffffffffffffffffff16905081600560006101000a81548173ffffffffffffffffffffffffffffffffffffffff021916908373ffffffffffffffffffffffffffffffffffffffff1602179055508173ffffffffffffffffffffffffffffffffffffffff168173ffffffffffffffffffffffffffffffffffffffff167f8be0079c531659141344cd1fd0a4f28419497f9722a3daafe3b4186f6b6457e060405160405180910390a35050565b600073ffffffffffffffffffffffffffffffffffffffff168273ffffffffffffffffffffffffffffffffffffffff16141562000251576040517f08c379a0000000000000000000000000000000000000000000000000000000008152600401620002489062000492565b60405180910390fd5b62000265600083836200035760201b60201c565b8060026000828254620002799190620004e2565b92505081905550806000808473ffffffffffffffffffffffffffffffffffffffff1673ffffffffffffffffffffffffffffffffffffffff1681526020019081526020016000206000828254620002d09190620004e2565b925050819055508173ffffffffffffffffffffffffffffffffffffffff16600073ffffffffffffffffffffffffffffffffffffffff167fddf252ad1be2c89b69c2b068fc378daa952ba7f163c4a11628f55a4df523b3ef83604051620003379190620004b4565b60405180910390a362000353600083836200035c60201b60201c565b5050565b505050565b505050565b8280546200036f9062000549565b90600052602060002090601f016020900481019282620003935760008555620003df565b82601f10620003ae57805160ff1916838001178555620003df565b82800160010185558215620003df579182015b82811115620003de578251825591602001919060010190620003c1565b5b509050620003ee9190620003f2565b5090565b5b808211156200040d576000816000905550600101620003f3565b5090565b60008151905062000422816200060b565b92915050565b600060208284031215620004415762000440620005dd565b5b6000620004518482850162000411565b91505092915050565b600062000469601f83620004d1565b91506200047682620005e2565b602082019050919050565b6200048c816200053f565b82525050565b60006020820190508181036000830152620004ad816200045a565b9050919050565b6000602082019050620004cb600083018462000481565b92915050565b600082825260208201905092915050565b6000620004ef826200053f565b9150620004fc836200053f565b9250827fffffffffffffffffffffffffffffffffffffffffffffffffffffffffffffffff038211156200053457620005336200057f565b5b828201905092915050565b6000819050919050565b600060028204905060018216806200056257607f821691505b60208210811415620005795762000578620005ae565b5b50919050565b7f4e487b7100000000000000000000000000000000000000000000000000000000600052601160045260246000fd5b7f4e487b7100000000000000000000000000000000000000000000000000000000600052602260045260246000fd5b600080fd5b7f45524332303a206d696e7420746f20746865207a65726f206164647265737300600082015250565b62000616816200053f565b81146200062257600080fd5b50565b612a4380620006356000396000f3fe608060405234801561001057600080fd5b506004361061014d5760003560e01c806370a08231116100c3578063a457c2d71161007c578063a457c2d71461038c578063a9059cbb146103bc578063bf9befb1146103ec578063dd62ed3e1461040a578063e7e97b571461043a578063f2fde38b1461046b5761014d565b806370a08231146102de578063715018a61461030e5780638da5cb5b14610318578063939624ab1461033657806395d89b41146103525780639dc29fac146103705761014d565b806323b872dd1161011557806323b872dd146101f6578063313ce56714610226578063395093511461024457806340c10f191461027457806342623360146102905780635c975abb146102c05761014d565b806306fdde0314610152578063095ea7b31461017057806316c38b3c146101a057806318160ddd146101bc5780631bf6ddae146101da575b600080fd5b61015a610487565b60405161016791906120c3565b60405180910390f35b61018a60048036038101906101859190611d25565b610519565b604051610197919061207f565b60405180910390f35b6101ba60048036038101906101b59190611d65565b610537565b005b6101c4610554565b6040516101d191906122e5565b60405180910390f35b6101f460048036038101906101ef9190611d92565b61055e565b005b610210600480360381019061020b9190611cd2565b6106ac565b60405161021d919061207f565b60405180910390f35b61022e6107a4565b60405161023b9190612300565b60405180910390f35b61025e60048036038101906102599190611d25565b6107ad565b60405161026b919061207f565b60405180910390f35b61028e60048036038101906102899190611d25565b610859565b005b6102aa60048036038101906102a59190611c65565b6108bd565b6040516102b791906122e5565b60405180910390f35b6102c8610924565b6040516102d5919061207f565b60405180910390f35b6102f860048036038101906102f39190611c65565b610937565b60405161030591906122e5565b60405180910390f35b61031661097f565b005b610320610a07565b60405161032d9190612064565b60405180910390f35b610350600480360381019061034b9190611d92565b610a31565b005b61035a610c50565b60405161036791906120c3565b60405180910390f35b61038a60048036038101906103859190611d25565b610ce2565b005b6103a660048036038101906103a19190611d25565b610d46565b6040516103b3919061207f565b60405180910390f35b6103d660048036038101906103d19190611d25565b610e31565b6040516103e3919061207f565b60405180910390f35b6103f4610e4f565b60405161040191906122e5565b60405180910390f35b610424600480360381019061041f9190611c92565b610f0d565b60405161043191906122e5565b60405180910390f35b610454600480360381019061044f9190611c65565b610f94565b60405161046292919061209a565b60405180910390f35b61048560048036038101906104809190611c65565b61109d565b005b60606003805461049690612449565b80601f01602080910402602001604051908101604052809291908181526020018280546104c290612449565b801561050f5780601f106104e45761010080835404028352916020019161050f565b820191906000526020600020905b8154815290600101906020018083116104f257829003601f168201915b5050505050905090565b600061052d610526611195565b848461119d565b6001905092915050565b80600560146101000a81548160ff02191690831515021790555050565b6000600254905090565b60001515600560149054906101000a900460ff161515146105b4576040517f08c379a00000000000000000000000000000000000000000000000000000000081526004016105ab90612285565b60405180910390fd5b600081116105f7576040517f08c379a00000000000000000000000000000000000000000000000000000000081526004016105ee90612225565b60405180910390fd5b6106013382611368565b6000600760003373ffffffffffffffffffffffffffffffffffffffff1673ffffffffffffffffffffffffffffffffffffffff168152602001908152602001600020541415610653576106523361153f565b5b80600760003373ffffffffffffffffffffffffffffffffffffffff1673ffffffffffffffffffffffffffffffffffffffff16815260200190815260200160002060008282546106a29190612337565b9250508190555050565b60006106b9848484611610565b6000600160008673ffffffffffffffffffffffffffffffffffffffff1673ffffffffffffffffffffffffffffffffffffffff1681526020019081526020016000206000610704611195565b73ffffffffffffffffffffffffffffffffffffffff1673ffffffffffffffffffffffffffffffffffffffff16815260200190815260200160002054905082811015610784576040517f08c379a000000000000000000000000000000000000000000000000000000000815260040161077b906121a5565b60405180910390fd5b61079885610790611195565b85840361119d565b60019150509392505050565b60006012905090565b600061084f6107ba611195565b8484600160006107c8611195565b73ffffffffffffffffffffffffffffffffffffffff1673ffffffffffffffffffffffffffffffffffffffff16815260200190815260200160002060008873ffffffffffffffffffffffffffffffffffffffff1673ffffffffffffffffffffffffffffffffffffffff1681526020019081526020016000205461084a9190612337565b61119d565b6001905092915050565b60001515600560149054906101000a900460ff161515146108af576040517f08c379a00000000000000000000000000000000000000000000000000000000081526004016108a690612285565b60405180910390fd5b6108b98282611891565b5050565b6000806108c983610f94565b509050806108db57600091505061091f565b600760008473ffffffffffffffffffffffffffffffffffffffff1673ffffffffffffffffffffffffffffffffffffffff168152602001908152602001600020549150505b919050565b600560149054906101000a900460ff1681565b60008060008373ffffffffffffffffffffffffffffffffffffffff1673ffffffffffffffffffffffffffffffffffffffff168152602001908152602001600020549050919050565b610987611195565b73ffffffffffffffffffffffffffffffffffffffff166109a5610a07565b73ffffffffffffffffffffffffffffffffffffffff16146109fb576040517f08c379a00000000000000000000000000000000000000000000000000000000081526004016109f2906121c5565b60405180910390fd5b610a0560006119f1565b565b6000600560009054906101000a900473ffffffffffffffffffffffffffffffffffffffff16905090565b60001515600560149054906101000a900460ff16151514610a87576040517f08c379a0000000000000000000000000000000000000000000000000000000008152600401610a7e90612285565b60405180910390fd5b60008111610aca576040517f08c379a0000000000000000000000000000000000000000000000000000000008152600401610ac190612225565b60405180910390fd5b600760003373ffffffffffffffffffffffffffffffffffffffff1673ffffffffffffffffffffffffffffffffffffffff16815260200190815260200160002054811115610b4c576040517f08c379a0000000000000000000000000000000000000000000000000000000008152600401610b43906121e5565b60405180910390fd5b6000610b5733610f94565b50905080610b9a576040517f08c379a0000000000000000000000000000000000000000000000000000000008152600401610b9190612185565b60405180910390fd5b81600760003373ffffffffffffffffffffffffffffffffffffffff1673ffffffffffffffffffffffffffffffffffffffff1681526020019081526020016000206000828254610be9919061238d565b925050819055506000600760003373ffffffffffffffffffffffffffffffffffffffff1673ffffffffffffffffffffffffffffffffffffffff168152602001908152602001600020541415610c4257610c4133611ab7565b5b610c4c3383611891565b5050565b606060048054610c5f90612449565b80601f0160208091040260200160405190810160405280929190818152602001828054610c8b90612449565b8015610cd85780601f10610cad57610100808354040283529160200191610cd8565b820191906000526020600020905b815481529060010190602001808311610cbb57829003601f168201915b5050505050905090565b60001515600560149054906101000a900460ff16151514610d38576040517f08c379a0000000000000000000000000000000000000000000000000000000008152600401610d2f90612285565b60405180910390fd5b610d428282611368565b5050565b60008060016000610d55611195565b73ffffffffffffffffffffffffffffffffffffffff1673ffffffffffffffffffffffffffffffffffffffff16815260200190815260200160002060008573ffffffffffffffffffffffffffffffffffffffff1673ffffffffffffffffffffffffffffffffffffffff16815260200190815260200160002054905082811015610e12576040517f08c379a0000000000000000000000000000000000000000000000000000000008152600401610e09906122a5565b60405180910390fd5b610e26610e1d611195565b8585840361119d565b600191505092915050565b6000610e45610e3e611195565b8484611610565b6001905092915050565b6000806000905060005b600680549050811015610f05576007600060068381548110610e7e57610e7d612551565b5b9060005260206000200160009054906101000a900473ffffffffffffffffffffffffffffffffffffffff1673ffffffffffffffffffffffffffffffffffffffff1673ffffffffffffffffffffffffffffffffffffffff1681526020019081526020016000205482610eef9190612337565b9150600181610efe9190612337565b9050610e59565b508091505090565b6000600160008473ffffffffffffffffffffffffffffffffffffffff1673ffffffffffffffffffffffffffffffffffffffff16815260200190815260200160002060008373ffffffffffffffffffffffffffffffffffffffff1673ffffffffffffffffffffffffffffffffffffffff16815260200190815260200160002054905092915050565b60008060001515600560149054906101000a900460ff16151514610fed576040517f08c379a0000000000000000000000000000000000000000000000000000000008152600401610fe490612285565b60405180910390fd5b60005b60068054905081101561108f576006818154811061101157611010612551565b5b9060005260206000200160009054906101000a900473ffffffffffffffffffffffffffffffffffffffff1673ffffffffffffffffffffffffffffffffffffffff168473ffffffffffffffffffffffffffffffffffffffff16141561107c576001819250925050611098565b80806110879061247b565b915050610ff0565b50600080915091505b915091565b6110a5611195565b73ffffffffffffffffffffffffffffffffffffffff166110c3610a07565b73ffffffffffffffffffffffffffffffffffffffff1614611119576040517f08c379a0000000000000000000000000000000000000000000000000000000008152600401611110906121c5565b60405180910390fd5b600073ffffffffffffffffffffffffffffffffffffffff168173ffffffffffffffffffffffffffffffffffffffff161415611189576040517f08c379a000000000000000000000000000000000000000000000000000000000815260040161118090612125565b60405180910390fd5b611192816119f1565b50565b600033905090565b600073ffffffffffffffffffffffffffffffffffffffff168373ffffffffffffffffffffffffffffffffffffffff16141561120d576040517f08c379a000000000000000000000000000000000000000000000000000000000815260040161120490612265565b60405180910390fd5b600073ffffffffffffffffffffffffffffffffffffffff168273ffffffffffffffffffffffffffffffffffffffff16141561127d576040517f08c379a000000000000000000000000000000000000000000000000000000000815260040161127490612145565b60405180910390fd5b80600160008573ffffffffffffffffffffffffffffffffffffffff1673ffffffffffffffffffffffffffffffffffffffff16815260200190815260200160002060008473ffffffffffffffffffffffffffffffffffffffff1673ffffffffffffffffffffffffffffffffffffffff168152602001908152602001600020819055508173ffffffffffffffffffffffffffffffffffffffff168373ffffffffffffffffffffffffffffffffffffffff167f8c5be1e5ebec7d5bd14f71427d1e84f3dd0314c0f7b2291e5b200ac8c7c3b9258360405161135b91906122e5565b60405180910390a3505050565b600073ffffffffffffffffffffffffffffffffffffffff168273ffffffffffffffffffffffffffffffffffffffff1614156113d8576040517f08c379a00000000000000000000000000000000000000000000000000000000081526004016113cf90612205565b60405180910390fd5b6113e482600083611c1c565b60008060008473ffffffffffffffffffffffffffffffffffffffff1673ffffffffffffffffffffffffffffffffffffffff1681526020019081526020016000205490508181101561146a576040517f08c379a000000000000000000000000000000000000000000000000000000000815260040161146190612105565b60405180910390fd5b8181036000808573ffffffffffffffffffffffffffffffffffffffff1673ffffffffffffffffffffffffffffffffffffffff1681526020019081526020016000208190555081600260008282546114c1919061238d565b92505081905550600073ffffffffffffffffffffffffffffffffffffffff168373ffffffffffffffffffffffffffffffffffffffff167fddf252ad1be2c89b69c2b068fc378daa952ba7f163c4a11628f55a4df523b3ef8460405161152691906122e5565b60405180910390a361153a83600084611c21565b505050565b60001515600560149054906101000a900460ff16151514611595576040517f08c379a000000000000000000000000000000000000000000000000000000000815260040161158c90612285565b60405180910390fd5b60006115a082610f94565b5090508061160c576006829080600181540180825580915050600190039060005260206000200160009091909190916101000a81548173ffffffffffffffffffffffffffffffffffffffff021916908373ffffffffffffffffffffffffffffffffffffffff1602179055505b5050565b600073ffffffffffffffffffffffffffffffffffffffff168373ffffffffffffffffffffffffffffffffffffffff161415611680576040517f08c379a000000000000000000000000000000000000000000000000000000000815260040161167790612245565b60405180910390fd5b600073ffffffffffffffffffffffffffffffffffffffff168273ffffffffffffffffffffffffffffffffffffffff1614156116f0576040517f08c379a00000000000000000000000000000000000000000000000000000000081526004016116e7906120e5565b60405180910390fd5b6116fb838383611c1c565b60008060008573ffffffffffffffffffffffffffffffffffffffff1673ffffffffffffffffffffffffffffffffffffffff16815260200190815260200160002054905081811015611781576040517f08c379a000000000000000000000000000000000000000000000000000000000815260040161177890612165565b60405180910390fd5b8181036000808673ffffffffffffffffffffffffffffffffffffffff1673ffffffffffffffffffffffffffffffffffffffff16815260200190815260200160002081905550816000808573ffffffffffffffffffffffffffffffffffffffff1673ffffffffffffffffffffffffffffffffffffffff16815260200190815260200160002060008282546118149190612337565b925050819055508273ffffffffffffffffffffffffffffffffffffffff168473ffffffffffffffffffffffffffffffffffffffff167fddf252ad1be2c89b69c2b068fc378daa952ba7f163c4a11628f55a4df523b3ef8460405161187891906122e5565b60405180910390a361188b848484611c21565b50505050565b600073ffffffffffffffffffffffffffffffffffffffff168273ffffffffffffffffffffffffffffffffffffffff161415611901576040517f08c379a00000000000000000000000000000000000000000000000000000000081526004016118f8906122c5565b60405180910390fd5b61190d60008383611c1c565b806002600082825461191f9190612337565b92505081905550806000808473ffffffffffffffffffffffffffffffffffffffff1673ffffffffffffffffffffffffffffffffffffffff16815260200190815260200160002060008282546119749190612337565b925050819055508173ffffffffffffffffffffffffffffffffffffffff16600073ffffffffffffffffffffffffffffffffffffffff167fddf252ad1be2c89b69c2b068fc378daa952ba7f163c4a11628f55a4df523b3ef836040516119d991906122e5565b60405180910390a36119ed60008383611c21565b5050565b6000600560009054906101000a900473ffffffffffffffffffffffffffffffffffffffff16905081600560006101000a81548173ffffffffffffffffffffffffffffffffffffffff021916908373ffffffffffffffffffffffffffffffffffffffff1602179055508173ffffffffffffffffffffffffffffffffffffffff168173ffffffffffffffffffffffffffffffffffffffff167f8be0079c531659141344cd1fd0a4f28419497f9722a3daafe3b4186f6b6457e060405160405180910390a35050565b60001515600560149054906101000a900460ff16151514611b0d576040517f08c379a0000000000000000000000000000000000000000000000000000000008152600401611b0490612285565b60405180910390fd5b600080611b1983610f94565b915091508115611c175760066001600680549050611b37919061238d565b81548110611b4857611b47612551565b5b9060005260206000200160009054906101000a900473ffffffffffffffffffffffffffffffffffffffff1660068281548110611b8757611b86612551565b5b9060005260206000200160006101000a81548173ffffffffffffffffffffffffffffffffffffffff021916908373ffffffffffffffffffffffffffffffffffffffff1602179055506006805480611be157611be0612522565b5b6001900381819060005260206000200160006101000a81549073ffffffffffffffffffffffffffffffffffffffff021916905590555b505050565b505050565b505050565b600081359050611c35816129c8565b92915050565b600081359050611c4a816129df565b92915050565b600081359050611c5f816129f6565b92915050565b600060208284031215611c7b57611c7a612580565b5b6000611c8984828501611c26565b91505092915050565b60008060408385031215611ca957611ca8612580565b5b6000611cb785828601611c26565b9250506020611cc885828601611c26565b9150509250929050565b600080600060608486031215611ceb57611cea612580565b5b6000611cf986828701611c26565b9350506020611d0a86828701611c26565b9250506040611d1b86828701611c50565b9150509250925092565b60008060408385031215611d3c57611d3b612580565b5b6000611d4a85828601611c26565b9250506020611d5b85828601611c50565b9150509250929050565b600060208284031215611d7b57611d7a612580565b5b6000611d8984828501611c3b565b91505092915050565b600060208284031215611da857611da7612580565b5b6000611db684828501611c50565b91505092915050565b611dc8816123c1565b82525050565b611dd7816123d3565b82525050565b6000611de88261231b565b611df28185612326565b9350611e02818560208601612416565b611e0b81612585565b840191505092915050565b6000611e23602383612326565b9150611e2e82612596565b604082019050919050565b6000611e46602283612326565b9150611e51826125e5565b604082019050919050565b6000611e69602683612326565b9150611e7482612634565b604082019050919050565b6000611e8c602283612326565b9150611e9782612683565b604082019050919050565b6000611eaf602683612326565b9150611eba826126d2565b604082019050919050565b6000611ed2601683612326565b9150611edd82612721565b602082019050919050565b6000611ef5602883612326565b9150611f008261274a565b604082019050919050565b6000611f18602083612326565b9150611f2382612799565b602082019050919050565b6000611f3b602283612326565b9150611f46826127c2565b604082019050919050565b6000611f5e602183612326565b9150611f6982612811565b604082019050919050565b6000611f81600d83612326565b9150611f8c82612860565b602082019050919050565b6000611fa4602583612326565b9150611faf82612889565b604082019050919050565b6000611fc7602483612326565b9150611fd2826128d8565b604082019050919050565b6000611fea600f83612326565b9150611ff582612927565b602082019050919050565b600061200d602583612326565b915061201882612950565b604082019050919050565b6000612030601f83612326565b915061203b8261299f565b602082019050919050565b61204f816123ff565b82525050565b61205e81612409565b82525050565b60006020820190506120796000830184611dbf565b92915050565b60006020820190506120946000830184611dce565b92915050565b60006040820190506120af6000830185611dce565b6120bc6020830184612046565b9392505050565b600060208201905081810360008301526120dd8184611ddd565b905092915050565b600060208201905081810360008301526120fe81611e16565b9050919050565b6000602082019050818103600083015261211e81611e39565b9050919050565b6000602082019050818103600083015261213e81611e5c565b9050919050565b6000602082019050818103600083015261215e81611e7f565b9050919050565b6000602082019050818103600083015261217e81611ea2565b9050919050565b6000602082019050818103600083015261219e81611ec5565b9050919050565b600060208201905081810360008301526121be81611ee8565b9050919050565b600060208201905081810360008301526121de81611f0b565b9050919050565b600060208201905081810360008301526121fe81611f2e565b9050919050565b6000602082019050818103600083015261221e81611f51565b9050919050565b6000602082019050818103600083015261223e81611f74565b9050919050565b6000602082019050818103600083015261225e81611f97565b9050919050565b6000602082019050818103600083015261227e81611fba565b9050919050565b6000602082019050818103600083015261229e81611fdd565b9050919050565b600060208201905081810360008301526122be81612000565b9050919050565b600060208201905081810360008301526122de81612023565b9050919050565b60006020820190506122fa6000830184612046565b92915050565b60006020820190506123156000830184612055565b92915050565b600081519050919050565b600082825260208201905092915050565b6000612342826123ff565b915061234d836123ff565b9250827fffffffffffffffffffffffffffffffffffffffffffffffffffffffffffffffff03821115612382576123816124c4565b5b828201905092915050565b6000612398826123ff565b91506123a3836123ff565b9250828210156123b6576123b56124c4565b5b828203905092915050565b60006123cc826123df565b9050919050565b60008115159050919050565b600073ffffffffffffffffffffffffffffffffffffffff82169050919050565b6000819050919050565b600060ff82169050919050565b60005b83811015612434578082015181840152602081019050612419565b83811115612443576000848401525b50505050565b6000600282049050600182168061246157607f821691505b60208210811415612475576124746124f3565b5b50919050565b6000612486826123ff565b91507fffffffffffffffffffffffffffffffffffffffffffffffffffffffffffffffff8214156124b9576124b86124c4565b5b600182019050919050565b7f4e487b7100000000000000000000000000000000000000000000000000000000600052601160045260246000fd5b7f4e487b7100000000000000000000000000000000000000000000000000000000600052602260045260246000fd5b7f4e487b7100000000000000000000000000000000000000000000000000000000600052603160045260246000fd5b7f4e487b7100000000000000000000000000000000000000000000000000000000600052603260045260246000fd5b600080fd5b6000601f19601f8301169050919050565b7f45524332303a207472616e7366657220746f20746865207a65726f206164647260008201527f6573730000000000000000000000000000000000000000000000000000000000602082015250565b7f45524332303a206275726e20616d6f756e7420657863656564732062616c616e60008201527f6365000000000000000000000000000000000000000000000000000000000000602082015250565b7f4f776e61626c653a206e6577206f776e657220697320746865207a65726f206160008201527f6464726573730000000000000000000000000000000000000000000000000000602082015250565b7f45524332303a20617070726f766520746f20746865207a65726f20616464726560008201527f7373000000000000000000000000000000000000000000000000000000000000602082015250565b7f45524332303a207472616e7366657220616d6f756e742065786365656473206260008201527f616c616e63650000000000000000000000000000000000000000000000000000602082015250565b7f41646472657373206973206e6f74207374616b696e6700000000000000000000600082015250565b7f45524332303a207472616e7366657220616d6f756e742065786365656473206160008201527f6c6c6f77616e6365000000000000000000000000000000000000000000000000602082015250565b7f4f776e61626c653a2063616c6c6572206973206e6f7420746865206f776e6572600082015250565b7f43616e6e6f742072656d6f7665206d6f7265207468616e206973207374616b6560008201527f642e000000000000000000000000000000000000000000000000000000000000602082015250565b7f45524332303a206275726e2066726f6d20746865207a65726f2061646472657360008201527f7300000000000000000000000000000000000000000000000000000000000000602082015250565b7f5374616b65206973207a65726f00000000000000000000000000000000000000600082015250565b7f45524332303a207472616e736665722066726f6d20746865207a65726f20616460008201527f6472657373000000000000000000000000000000000000000000000000000000602082015250565b7f45524332303a20617070726f76652066726f6d20746865207a65726f2061646460008201527f7265737300000000000000000000000000000000000000000000000000000000602082015250565b7f436f6e7472616374205061757365640000000000000000000000000000000000600082015250565b7f45524332303a2064656372656173656420616c6c6f77616e63652062656c6f7760008201527f207a65726f000000000000000000000000000000000000000000000000000000602082015250565b7f45524332303a206d696e7420746f20746865207a65726f206164647265737300600082015250565b6129d1816123c1565b81146129dc57600080fd5b50565b6129e8816123d3565b81146129f357600080fd5b50565b6129ff816123ff565b8114612a0a57600080fd5b5056fea264697066735822122093e3859429b1438b7e7890f8cc0ba9ccbe58063f25be30a5233e4663a7a6355664736f6c63430008060033",
  "immutableReferences": {},
  "source": "// SPDX-License-Identifier: NONE\r\npragma solidity ^0.8.6;\r\n\r\n/**\r\n * @dev Interface of the ERC20 standard as defined in the EIP.\r\n */\r\ninterface IERC20 {\r\n    /**\r\n     * @dev Returns the amount of tokens in existence.\r\n     */\r\n    function totalSupply() external view returns (uint256);\r\n\r\n    /**\r\n     * @dev Returns the amount of tokens owned by `account`.\r\n     */\r\n    function balanceOf(address account) external view returns (uint256);\r\n\r\n    /**\r\n     * @dev Moves `amount` tokens from the caller's account to `recipient`.\r\n     *\r\n     * Returns a boolean value indicating whether the operation succeeded.\r\n     *\r\n     * Emits a {Transfer} event.\r\n     */\r\n    function transfer(address recipient, uint256 amount) external returns (bool);\r\n\r\n    /**\r\n     * @dev Returns the remaining number of tokens that `spender` will be\r\n     * allowed to spend on behalf of `owner` through {transferFrom}. This is\r\n     * zero by default.\r\n     *\r\n     * This value changes when {approve} or {transferFrom} are called.\r\n     */\r\n    function allowance(address owner, address spender) external view returns (uint256);\r\n\r\n    /**\r\n     * @dev Sets `amount` as the allowance of `spender` over the caller's tokens.\r\n     *\r\n     * Returns a boolean value indicating whether the operation succeeded.\r\n     *\r\n     * IMPORTANT: Beware that changing an allowance with this method brings the risk\r\n     * that someone may use both the old and the new allowance by unfortunate\r\n     * transaction ordering. One possible solution to mitigate this race\r\n     * condition is to first reduce the spender's allowance to 0 and set the\r\n     * desired value afterwards:\r\n     * https://github.com/ethereum/EIPs/issues/20#issuecomment-263524729\r\n     *\r\n     * Emits an {Approval} event.\r\n     */\r\n    function approve(address spender, uint256 amount) external returns (bool);\r\n\r\n    /**\r\n     * @dev Moves `amount` tokens from `sender` to `recipient` using the\r\n     * allowance mechanism. `amount` is then deducted from the caller's\r\n     * allowance.\r\n     *\r\n     * Returns a boolean value indicating whether the operation succeeded.\r\n     *\r\n     * Emits a {Transfer} event.\r\n     */\r\n    function transferFrom(\r\n        address sender,\r\n        address recipient,\r\n        uint256 amount\r\n    ) external returns (bool);\r\n\r\n    /**\r\n     * @dev Emitted when `value` tokens are moved from one account (`from`) to\r\n     * another (`to`).\r\n     *\r\n     * Note that `value` may be zero.\r\n     */\r\n    event Transfer(address indexed from, address indexed to, uint256 value);\r\n\r\n    /**\r\n     * @dev Emitted when the allowance of a `spender` for an `owner` is set by\r\n     * a call to {approve}. `value` is the new allowance.\r\n     */\r\n    event Approval(address indexed owner, address indexed spender, uint256 value);\r\n}\r\n\r\n\r\n\r\n/**\r\n * @dev Interface for the optional metadata functions from the ERC20 standard.\r\n *\r\n * _Available since v4.1._\r\n */\r\ninterface IERC20Metadata is IERC20 {\r\n    /**\r\n     * @dev Returns the name of the token.\r\n     */\r\n    function name() external view returns (string memory);\r\n\r\n    /**\r\n     * @dev Returns the symbol of the token.\r\n     */\r\n    function symbol() external view returns (string memory);\r\n\r\n    /**\r\n     * @dev Returns the decimals places of the token.\r\n     */\r\n    function decimals() external view returns (uint8);\r\n}\r\n\r\n\r\n\r\n\r\n/*\r\n * @dev Provides information about the current execution context, including the\r\n * sender of the transaction and its data. While these are generally available\r\n * via msg.sender and msg.data, they should not be accessed in such a direct\r\n * manner, since when dealing with meta-transactions the account sending and\r\n * paying for execution may not be the actual sender (as far as an application\r\n * is concerned).\r\n *\r\n * This contract is only required for intermediate, library-like contracts.\r\n */\r\nabstract contract Context {\r\n    function _msgSender() internal view virtual returns (address) {\r\n        return msg.sender;\r\n    }\r\n\r\n    function _msgData() internal view virtual returns (bytes calldata) {\r\n        return msg.data;\r\n    }\r\n}\r\n\r\n\r\n\r\n/**\r\n * @dev Implementation of the {IERC20} interface.\r\n *\r\n * This implementation is agnostic to the way tokens are created. This means\r\n * that a supply mechanism has to be added in a derived contract using {_mint}.\r\n * For a generic mechanism see {ERC20PresetMinterPauser}.\r\n *\r\n * TIP: For a detailed writeup see our guide\r\n * https://forum.zeppelin.solutions/t/how-to-implement-erc20-supply-mechanisms/226[How\r\n * to implement supply mechanisms].\r\n *\r\n * We have followed general OpenZeppelin guidelines: functions revert instead\r\n * of returning `false` on failure. This behavior is nonetheless conventional\r\n * and does not conflict with the expectations of ERC20 applications.\r\n *\r\n * Additionally, an {Approval} event is emitted on calls to {transferFrom}.\r\n * This allows applications to reconstruct the allowance for all accounts just\r\n * by listening to said events. Other implementations of the EIP may not emit\r\n * these events, as it isn't required by the specification.\r\n *\r\n * Finally, the non-standard {decreaseAllowance} and {increaseAllowance}\r\n * functions have been added to mitigate the well-known issues around setting\r\n * allowances. See {IERC20-approve}.\r\n */\r\ncontract ERC20 is Context, IERC20, IERC20Metadata {\r\n    mapping(address => uint256) private _balances;\r\n\r\n    mapping(address => mapping(address => uint256)) private _allowances;\r\n\r\n    uint256 private _totalSupply;\r\n\r\n    string private _name;\r\n    string private _symbol;\r\n\r\n    /**\r\n     * @dev Sets the values for {name} and {symbol}.\r\n     *\r\n     * The default value of {decimals} is 18. To select a different value for\r\n     * {decimals} you should overload it.\r\n     *\r\n     * All two of these values are immutable: they can only be set once during\r\n     * construction.\r\n     */\r\n    constructor(string memory name_, string memory symbol_) {\r\n        _name = name_;\r\n        _symbol = symbol_;\r\n    }\r\n\r\n    /**\r\n     * @dev Returns the name of the token.\r\n     */\r\n    function name() public view virtual override returns (string memory) {\r\n        return _name;\r\n    }\r\n\r\n    /**\r\n     * @dev Returns the symbol of the token, usually a shorter version of the\r\n     * name.\r\n     */\r\n    function symbol() public view virtual override returns (string memory) {\r\n        return _symbol;\r\n    }\r\n\r\n    /**\r\n     * @dev Returns the number of decimals used to get its user representation.\r\n     * For example, if `decimals` equals `2`, a balance of `505` tokens should\r\n     * be displayed to a user as `5,05` (`505 / 10 ** 2`).\r\n     *\r\n     * Tokens usually opt for a value of 18, imitating the relationship between\r\n     * Ether and Wei. This is the value {ERC20} uses, unless this function is\r\n     * overridden;\r\n     *\r\n     * NOTE: This information is only used for _display_ purposes: it in\r\n     * no way affects any of the arithmetic of the contract, including\r\n     * {IERC20-balanceOf} and {IERC20-transfer}.\r\n     */\r\n    function decimals() public view virtual override returns (uint8) {\r\n        return 18;\r\n    }\r\n\r\n    /**\r\n     * @dev See {IERC20-totalSupply}.\r\n     */\r\n    function totalSupply() public view virtual override returns (uint256) {\r\n        return _totalSupply;\r\n    }\r\n\r\n    /**\r\n     * @dev See {IERC20-balanceOf}.\r\n     */\r\n    function balanceOf(address account) public view virtual override returns (uint256) {\r\n        return _balances[account];\r\n    }\r\n\r\n    /**\r\n     * @dev See {IERC20-transfer}.\r\n     *\r\n     * Requirements:\r\n     *\r\n     * - `recipient` cannot be the zero address.\r\n     * - the caller must have a balance of at least `amount`.\r\n     */\r\n    function transfer(address recipient, uint256 amount) public virtual override returns (bool) {\r\n        _transfer(_msgSender(), recipient, amount);\r\n        return true;\r\n    }\r\n\r\n    /**\r\n     * @dev See {IERC20-allowance}.\r\n     */\r\n    function allowance(address owner, address spender) public view virtual override returns (uint256) {\r\n        return _allowances[owner][spender];\r\n    }\r\n\r\n    /**\r\n     * @dev See {IERC20-approve}.\r\n     *\r\n     * Requirements:\r\n     *\r\n     * - `spender` cannot be the zero address.\r\n     */\r\n    function approve(address spender, uint256 amount) public virtual override returns (bool) {\r\n        _approve(_msgSender(), spender, amount);\r\n        return true;\r\n    }\r\n\r\n    /**\r\n     * @dev See {IERC20-transferFrom}.\r\n     *\r\n     * Emits an {Approval} event indicating the updated allowance. This is not\r\n     * required by the EIP. See the note at the beginning of {ERC20}.\r\n     *\r\n     * Requirements:\r\n     *\r\n     * - `sender` and `recipient` cannot be the zero address.\r\n     * - `sender` must have a balance of at least `amount`.\r\n     * - the caller must have allowance for ``sender``'s tokens of at least\r\n     * `amount`.\r\n     */\r\n    function transferFrom(\r\n        address sender,\r\n        address recipient,\r\n        uint256 amount\r\n    ) public virtual override returns (bool) {\r\n        _transfer(sender, recipient, amount);\r\n\r\n        uint256 currentAllowance = _allowances[sender][_msgSender()];\r\n        require(currentAllowance >= amount, \"ERC20: transfer amount exceeds allowance\");\r\n        unchecked {\r\n            _approve(sender, _msgSender(), currentAllowance - amount);\r\n        }\r\n\r\n        return true;\r\n    }\r\n\r\n    /**\r\n     * @dev Atomically increases the allowance granted to `spender` by the caller.\r\n     *\r\n     * This is an alternative to {approve} that can be used as a mitigation for\r\n     * problems described in {IERC20-approve}.\r\n     *\r\n     * Emits an {Approval} event indicating the updated allowance.\r\n     *\r\n     * Requirements:\r\n     *\r\n     * - `spender` cannot be the zero address.\r\n     */\r\n    function increaseAllowance(address spender, uint256 addedValue) public virtual returns (bool) {\r\n        _approve(_msgSender(), spender, _allowances[_msgSender()][spender] + addedValue);\r\n        return true;\r\n    }\r\n\r\n    /**\r\n     * @dev Atomically decreases the allowance granted to `spender` by the caller.\r\n     *\r\n     * This is an alternative to {approve} that can be used as a mitigation for\r\n     * problems described in {IERC20-approve}.\r\n     *\r\n     * Emits an {Approval} event indicating the updated allowance.\r\n     *\r\n     * Requirements:\r\n     *\r\n     * - `spender` cannot be the zero address.\r\n     * - `spender` must have allowance for the caller of at least\r\n     * `subtractedValue`.\r\n     */\r\n    function decreaseAllowance(address spender, uint256 subtractedValue) public virtual returns (bool) {\r\n        uint256 currentAllowance = _allowances[_msgSender()][spender];\r\n        require(currentAllowance >= subtractedValue, \"ERC20: decreased allowance below zero\");\r\n        unchecked {\r\n            _approve(_msgSender(), spender, currentAllowance - subtractedValue);\r\n        }\r\n\r\n        return true;\r\n    }\r\n\r\n    /**\r\n     * @dev Moves `amount` of tokens from `sender` to `recipient`.\r\n     *\r\n     * This internal function is equivalent to {transfer}, and can be used to\r\n     * e.g. implement automatic token fees, slashing mechanisms, etc.\r\n     *\r\n     * Emits a {Transfer} event.\r\n     *\r\n     * Requirements:\r\n     *\r\n     * - `sender` cannot be the zero address.\r\n     * - `recipient` cannot be the zero address.\r\n     * - `sender` must have a balance of at least `amount`.\r\n     */\r\n    function _transfer(\r\n        address sender,\r\n        address recipient,\r\n        uint256 amount\r\n    ) internal virtual {\r\n        require(sender != address(0), \"ERC20: transfer from the zero address\");\r\n        require(recipient != address(0), \"ERC20: transfer to the zero address\");\r\n\r\n        _beforeTokenTransfer(sender, recipient, amount);\r\n\r\n        uint256 senderBalance = _balances[sender];\r\n        require(senderBalance >= amount, \"ERC20: transfer amount exceeds balance\");\r\n        unchecked {\r\n            _balances[sender] = senderBalance - amount;\r\n        }\r\n        _balances[recipient] += amount;\r\n\r\n        emit Transfer(sender, recipient, amount);\r\n\r\n        _afterTokenTransfer(sender, recipient, amount);\r\n    }\r\n\r\n    /** @dev Creates `amount` tokens and assigns them to `account`, increasing\r\n     * the total supply.\r\n     *\r\n     * Emits a {Transfer} event with `from` set to the zero address.\r\n     *\r\n     * Requirements:\r\n     *\r\n     * - `account` cannot be the zero address.\r\n     */\r\n    function _mint(address account, uint256 amount) internal virtual {\r\n        require(account != address(0), \"ERC20: mint to the zero address\");\r\n\r\n        _beforeTokenTransfer(address(0), account, amount);\r\n\r\n        _totalSupply += amount;\r\n        _balances[account] += amount;\r\n        emit Transfer(address(0), account, amount);\r\n\r\n        _afterTokenTransfer(address(0), account, amount);\r\n    }\r\n\r\n    /**\r\n     * @dev Destroys `amount` tokens from `account`, reducing the\r\n     * total supply.\r\n     *\r\n     * Emits a {Transfer} event with `to` set to the zero address.\r\n     *\r\n     * Requirements:\r\n     *\r\n     * - `account` cannot be the zero address.\r\n     * - `account` must have at least `amount` tokens.\r\n     */\r\n    function _burn(address account, uint256 amount) internal virtual {\r\n        require(account != address(0), \"ERC20: burn from the zero address\");\r\n\r\n        _beforeTokenTransfer(account, address(0), amount);\r\n\r\n        uint256 accountBalance = _balances[account];\r\n        require(accountBalance >= amount, \"ERC20: burn amount exceeds balance\");\r\n        unchecked {\r\n            _balances[account] = accountBalance - amount;\r\n        }\r\n        _totalSupply -= amount;\r\n\r\n        emit Transfer(account, address(0), amount);\r\n\r\n        _afterTokenTransfer(account, address(0), amount);\r\n    }\r\n\r\n    /**\r\n     * @dev Sets `amount` as the allowance of `spender` over the `owner` s tokens.\r\n     *\r\n     * This internal function is equivalent to `approve`, and can be used to\r\n     * e.g. set automatic allowances for certain subsystems, etc.\r\n     *\r\n     * Emits an {Approval} event.\r\n     *\r\n     * Requirements:\r\n     *\r\n     * - `owner` cannot be the zero address.\r\n     * - `spender` cannot be the zero address.\r\n     */\r\n    function _approve(\r\n        address owner,\r\n        address spender,\r\n        uint256 amount\r\n    ) internal virtual {\r\n        require(owner != address(0), \"ERC20: approve from the zero address\");\r\n        require(spender != address(0), \"ERC20: approve to the zero address\");\r\n\r\n        _allowances[owner][spender] = amount;\r\n        emit Approval(owner, spender, amount);\r\n    }\r\n\r\n    /**\r\n     * @dev Hook that is called before any transfer of tokens. This includes\r\n     * minting and burning.\r\n     *\r\n     * Calling conditions:\r\n     *\r\n     * - when `from` and `to` are both non-zero, `amount` of ``from``'s tokens\r\n     * will be transferred to `to`.\r\n     * - when `from` is zero, `amount` tokens will be minted for `to`.\r\n     * - when `to` is zero, `amount` of ``from``'s tokens will be burned.\r\n     * - `from` and `to` are never both zero.\r\n     *\r\n     * To learn more about hooks, head to xref:ROOT:extending-contracts.adoc#using-hooks[Using Hooks].\r\n     */\r\n    function _beforeTokenTransfer(\r\n        address from,\r\n        address to,\r\n        uint256 amount\r\n    ) internal virtual {}\r\n\r\n    /**\r\n     * @dev Hook that is called after any transfer of tokens. This includes\r\n     * minting and burning.\r\n     *\r\n     * Calling conditions:\r\n     *\r\n     * - when `from` and `to` are both non-zero, `amount` of ``from``'s tokens\r\n     * has been transferred to `to`.\r\n     * - when `from` is zero, `amount` tokens have been minted for `to`.\r\n     * - when `to` is zero, `amount` of ``from``'s tokens have been burned.\r\n     * - `from` and `to` are never both zero.\r\n     *\r\n     * To learn more about hooks, head to xref:ROOT:extending-contracts.adoc#using-hooks[Using Hooks].\r\n     */\r\n    function _afterTokenTransfer(\r\n        address from,\r\n        address to,\r\n        uint256 amount\r\n    ) internal virtual {}\r\n}\r\n\r\n\r\n\r\n/**\r\n * @dev Contract module which provides a basic access control mechanism, where\r\n * there is an account (an owner) that can be granted exclusive access to\r\n * specific functions.\r\n *\r\n * By default, the owner account will be the one that deploys the contract. This\r\n * can later be changed with {transferOwnership}.\r\n *\r\n * This module is used through inheritance. It will make available the modifier\r\n * `onlyOwner`, which can be applied to your functions to restrict their use to\r\n * the owner.\r\n */\r\nabstract contract Ownable is Context {\r\n    address private _owner;\r\n\r\n    event OwnershipTransferred(address indexed previousOwner, address indexed newOwner);\r\n\r\n    /**\r\n     * @dev Initializes the contract setting the deployer as the initial owner.\r\n     */\r\n    constructor() {\r\n        _setOwner(_msgSender());\r\n    }\r\n\r\n    /**\r\n     * @dev Returns the address of the current owner.\r\n     */\r\n    function owner() public view virtual returns (address) {\r\n        return _owner;\r\n    }\r\n\r\n    /**\r\n     * @dev Throws if called by any account other than the owner.\r\n     */\r\n    modifier onlyOwner() {\r\n        require(owner() == _msgSender(), \"Ownable: caller is not the owner\");\r\n        _;\r\n    }\r\n\r\n    /**\r\n     * @dev Leaves the contract without owner. It will not be possible to call\r\n     * `onlyOwner` functions anymore. Can only be called by the current owner.\r\n     *\r\n     * NOTE: Renouncing ownership will leave the contract without an owner,\r\n     * thereby removing any functionality that is only available to the owner.\r\n     */\r\n    function renounceOwnership() public virtual onlyOwner {\r\n        _setOwner(address(0));\r\n    }\r\n\r\n    /**\r\n     * @dev Transfers ownership of the contract to a new account (`newOwner`).\r\n     * Can only be called by the current owner.\r\n     */\r\n    function transferOwnership(address newOwner) public virtual onlyOwner {\r\n        require(newOwner != address(0), \"Ownable: new owner is the zero address\");\r\n        _setOwner(newOwner);\r\n    }\r\n\r\n    function _setOwner(address newOwner) private {\r\n        address oldOwner = _owner;\r\n        _owner = newOwner;\r\n        emit OwnershipTransferred(oldOwner, newOwner);\r\n    }\r\n}\r\n\r\n//boolean bit mask. for unique only\r\n//mapping(string => uint256) _dataExists; // map aka dictionary. bool values and string as keys\r\n//_dataExists[_data]\r\n\r\ncontract StakerERC20_NoOwner is ERC20, Ownable {\r\n\r\n    bool public paused;\r\n    address[] internal stakingAddresses;\r\n    mapping(address => uint256) internal stakes;\r\n\r\n    constructor(uint256 initialSupply) ERC20(\"StakerERC20_NoOwner\", \"SENO\") {\r\n        _mint(msg.sender, initialSupply);\r\n        //if you wanted to fill the digits you can do NUMBER * 10**18\r\n    }\r\n\r\n    function setPaused(bool _paused) public { //onlyOwner\r\n        paused = _paused;\r\n    }\r\n\r\n    //returns 0 if not a staker, index of the array if yes\r\n    function isStakingAddress(address _address) \r\n    public view returns(bool, uint256)\r\n    {\r\n        require(paused == false, \"Contract Paused\");\r\n        for (uint256 index = 0; index < stakingAddresses.length; index++)\r\n        {\r\n            if (_address == stakingAddresses[index]) return (true, index);\r\n        }\r\n        return (false, 0);\r\n    }\r\n\r\n    function addStakingAddress(address _stakerAddress) \r\n    private\r\n    {\r\n        require(paused == false, \"Contract Paused\");\r\n        (bool _isStaking, ) =  isStakingAddress(_stakerAddress);\r\n        if(!_isStaking) stakingAddresses.push(_stakerAddress);\r\n    }\r\n\r\n    function removeStakingAddress(address _stakeholder)\r\n    private\r\n    {\r\n        require(paused == false, \"Contract Paused\");\r\n        (bool _isStaking, uint256 index) = isStakingAddress(_stakeholder);\r\n        if(_isStaking){\r\n            stakingAddresses[index] = stakingAddresses[stakingAddresses.length - 1];\r\n            stakingAddresses.pop();\r\n        }\r\n    }\r\n\r\n    function stakeOf(address _stakingAddress)\r\n    public view returns(uint256)\r\n    {\r\n        (bool _isStaking, ) =  isStakingAddress(_stakingAddress);\r\n        if(!_isStaking) return 0;\r\n        else            return stakes[_stakingAddress];\r\n    }\r\n\r\n    function totalStakes()\r\n    external view returns(uint256)\r\n    {\r\n        uint256 _totalStakes = 0;\r\n        for (uint256 index = 0; index < stakingAddresses.length; index += 1)\r\n        {\r\n            _totalStakes += stakes[stakingAddresses[index]];\r\n        }\r\n        return _totalStakes;\r\n    }\r\n\r\n    //increase stake if exists\r\n    function createStake(uint256 _stake)\r\n    external\r\n    {\r\n        require(paused == false, \"Contract Paused\");\r\n        require(_stake > 0, \"Stake is zero\"); \r\n        _burn(msg.sender, _stake);\r\n        if(stakes[msg.sender] == 0) addStakingAddress(msg.sender);\r\n        stakes[msg.sender] += _stake;\r\n    }\r\n\r\n    function removeStake(uint256 _stake)\r\n    external\r\n    {\r\n        require(paused == false, \"Contract Paused\");\r\n        require(_stake > 0, \"Stake is zero\"); \r\n        require( _stake <= stakes[msg.sender], \"Cannot remove more than is staked.\" );\r\n        (bool _isStaking, ) = isStakingAddress(msg.sender);\r\n        require(_isStaking, \"Address is not staking\");\r\n        \r\n        stakes[msg.sender] -= _stake;\r\n        if(stakes[msg.sender] == 0) removeStakingAddress(msg.sender);\r\n        _mint(msg.sender, _stake);\r\n    }\r\n\r\n    \r\n    function mint(address account, uint256 amount) public { //onlyOwner\r\n        require(paused == false, \"Contract Paused\");\r\n        _mint(account, amount);\r\n    }\r\n\r\n    function burn(address account, uint256 amount) public { //onlyOwner\r\n        require(paused == false, \"Contract Paused\");\r\n        _burn(account, amount);\r\n    }\r\n    \r\n    // function rewardOf(address _stakeholder)\r\n    // public view returns(uint256)\r\n    // {\r\n    //     return rewards[_stakeholder];\r\n    // }\r\n\r\n    // function totalRewards()\r\n    // public view returns(uint256)\r\n    // {\r\n    //     uint256 _totalRewards = 0;\r\n    //     for (uint256 s = 0; s < stakingAddresses.length; s += 1){\r\n    //         _totalRewards = _totalRewards += rewards[stakingAddresses[s]];\r\n    //     }\r\n    //     return _totalRewards;\r\n    // }\r\n\r\n    // function calculateReward(address _addr)\r\n    // public view returns(uint256)\r\n    // {\r\n    //     return stakes[_addr] / 100;\r\n    // }\r\n\r\n    // function distributeRewards()\r\n    // public onlyOwner\r\n    // {\r\n    //     for (uint256 s = 0; s < stakingAddresses.length; s += 1)\r\n    //     {\r\n    //         address addr = stakingAddresses[s];\r\n    //         uint256 reward = calculateReward(addr);\r\n    //         rewards[addr] = rewards[addr] += reward;\r\n    //     }\r\n    // }\r\n\r\n    // function withdrawReward()\r\n    // public\r\n    // {\r\n    //     uint256 reward = rewards[msg.sender];\r\n    //     rewards[msg.sender] = 0;\r\n    //     _mint(msg.sender, reward);\r\n    // }\r\n\r\n    // function sendViaCall(address payable _to) public payable {\r\n    //     // Call returns a boolean value indicating success or failure.\r\n    //     // This is the current recommended method to use.\r\n    //     (bool sent, bytes memory data) = _to.call{value: msg.value}(\"\");\r\n    //     require(sent, \"Failed to send Ether\");\r\n    // }\r\n    //address(this).balance;\r\n\r\n    /*\r\n    // Function to receive Ether. msg.data must be empty\r\n    receive() external payable {}\r\n\r\n    // Fallback function is called when msg.data is not empty\r\n    fallback() external payable {}\r\n\r\n    function getBalance() external view returns (uint) {\r\n        return address(this).balance;\r\n    }\r\n    */\r\n\r\n    //first approve amount\r\n    //then\r\n    //EIP20 token = EIP20(_tokenAddr);\r\n    //token.transferFrom(msg.sender, this, _value);\r\n\r\n    /*\r\n    function transferToMe(address _owner, address _token, unit _amount) public {\r\n          ERC20(_token).transferFrom(_owner, address(this), _amount);\r\n    }\r\n\r\n    function getBalanceOfToken(address _address) public view returns (unit) {\r\n        return ERC20(_address).balanceOf(address(this));\r\n    }\r\n    */\r\n\r\n    /*\r\n    tokenize coins using NFT an actual amount of crypto\r\n    like make an NFT, tokenize, lock,wrap a coin, like lets say ethereum. \r\n    minting by paying the amount, which gets locked in a contract\r\n    burning the nft transfers(redeems) the locked coins to the burners address\r\n\r\n    Tether\r\n    DAI\r\n    USDC\r\n    ETHER\r\n    */\r\n\r\n}\r\n\r\n\r\n\r\n\r\n\r\n",
  "sourcePath": "D:/Code/EthDev/anubis_solidity/contracts/StakerERC20_NoOwner.sol",
  "compiler": {
    "name": "solc",
    "version": "0.8.6+commit.11564f7e.Emscripten.clang"
  },
  "schemaVersion": "3.4.1",
  "updatedAt": "2021-08-25T06:09:37.899Z",
  "networkType": "ethereum",
  "devdoc": {
    "kind": "dev",
    "methods": {
      "allowance(address,address)": {
        "details": "See {IERC20-allowance}."
      },
      "approve(address,uint256)": {
        "details": "See {IERC20-approve}. Requirements: - `spender` cannot be the zero address."
      },
      "balanceOf(address)": {
        "details": "See {IERC20-balanceOf}."
      },
      "decimals()": {
        "details": "Returns the number of decimals used to get its user representation. For example, if `decimals` equals `2`, a balance of `505` tokens should be displayed to a user as `5,05` (`505 / 10 ** 2`). Tokens usually opt for a value of 18, imitating the relationship between Ether and Wei. This is the value {ERC20} uses, unless this function is overridden; NOTE: This information is only used for _display_ purposes: it in no way affects any of the arithmetic of the contract, including {IERC20-balanceOf} and {IERC20-transfer}."
      },
      "decreaseAllowance(address,uint256)": {
        "details": "Atomically decreases the allowance granted to `spender` by the caller. This is an alternative to {approve} that can be used as a mitigation for problems described in {IERC20-approve}. Emits an {Approval} event indicating the updated allowance. Requirements: - `spender` cannot be the zero address. - `spender` must have allowance for the caller of at least `subtractedValue`."
      },
      "increaseAllowance(address,uint256)": {
        "details": "Atomically increases the allowance granted to `spender` by the caller. This is an alternative to {approve} that can be used as a mitigation for problems described in {IERC20-approve}. Emits an {Approval} event indicating the updated allowance. Requirements: - `spender` cannot be the zero address."
      },
      "name()": {
        "details": "Returns the name of the token."
      },
      "owner()": {
        "details": "Returns the address of the current owner."
      },
      "renounceOwnership()": {
        "details": "Leaves the contract without owner. It will not be possible to call `onlyOwner` functions anymore. Can only be called by the current owner. NOTE: Renouncing ownership will leave the contract without an owner, thereby removing any functionality that is only available to the owner."
      },
      "symbol()": {
        "details": "Returns the symbol of the token, usually a shorter version of the name."
      },
      "totalSupply()": {
        "details": "See {IERC20-totalSupply}."
      },
      "transfer(address,uint256)": {
        "details": "See {IERC20-transfer}. Requirements: - `recipient` cannot be the zero address. - the caller must have a balance of at least `amount`."
      },
      "transferFrom(address,address,uint256)": {
        "details": "See {IERC20-transferFrom}. Emits an {Approval} event indicating the updated allowance. This is not required by the EIP. See the note at the beginning of {ERC20}. Requirements: - `sender` and `recipient` cannot be the zero address. - `sender` must have a balance of at least `amount`. - the caller must have allowance for ``sender``'s tokens of at least `amount`."
      },
      "transferOwnership(address)": {
        "details": "Transfers ownership of the contract to a new account (`newOwner`). Can only be called by the current owner."
      }
    },
    "version": 1
  },
  "userdoc": {
    "kind": "user",
    "methods": {},
    "version": 1
  }
}